:020000040800F2
:10000000900800209D010008A5010008A701000834
:10001000A9010008AB010008AD01000800000000C4
:10002000000000000000000000000000AF01000818
:10003000B101000800000000B30100080514000829
:10004000B7010008B7010008B7010008B7010008B0
:10005000B7010008B7010008B7010008B7010008A0
:10006000B7010008B7010008B7010008B701000890
:10007000B7010008B7010008B7010008B701000880
:10008000B7010008B7010008B7010008B701000870
:10009000B7010008B7010008B7010008B701000860
:1000A000B7010008B7010008B7010008B701000850
:1000B000B7010008B7010008B7010008B701000840
:1000C000B7010008B7010008B7010008B701000830
:1000D000B7010008B7010008B7010008B701000820
:1000E000B7010008B7010008B7010008B701000810
:1000F000B7010008B7010008B7010008B701000800
:10010000000000000000000000000000B70100082F
:10011000B7010008B7010008B7010008B7010008DF
:10012000B7010008B7010008B7010008B7010008CF
:10013000B7010008B701000800000000000000003F
:10014000B7010008B7010008B7010008000000006F
:10015000000000000000000000000000000000009F
:100160000000000000000000B7010008B70100080F
:10017000B7010008000000000000000000000000BF
:1001800000000000B7010008DFF80CD000F020F8F4
:1001900000480047311800089008002006488047B2
:1001A00006480047FEE7FEE7FEE7FEE7FEE7FEE75C
:1001B000FEE7FEE7FEE7FEE79D1400088901000860
:1001C000421C10F8011B0029FBD1801A7047000067
:1001D000064C074D06E0E06840F0010394E8070094
:1001E00098471034AC42F6D3FFF7D2FFF01900085D
:1001F000101A000870B5044600F0D8F80546601CD7
:1002000002D004480078044400F0D0F8401BA0421B
:10021000FAD370BD180000202DE9F84FDFF864B163
:1002200000234FF0010C4FF0030A4FF00F090BF1C0
:10023000040EA0E00CFA03F6324072D04C68022C97
:1002400001D0122C0ED1DC0800EB8408D8F8204035
:100250005D07EF0E09FA07F5AC430D69BD40254374
:10026000C8F8205007685D0091F804800AFA05F488
:1002700008F00308A74308FA05F848EA0708C0F899
:1002800000804F68012F05D0022F03D0112F01D01D
:10029000122F11D18768D1F80C80A74308FA05F80E
:1002A00048EA0708C0F808804768B7430E79C6F3E4
:1002B00000169E403E434660C668A6438C68AC402C
:1002C0003443C4604C68E40054D52F4CA56945F014
:1002D0000105A561A46923F0030504F0010400945D
:1002E0002A4C2E19B4689D072F0F09FA07F5AC4365
:1002F000B0F1904F04D0264DA84203D1012512E061
:10030000002510E0234DA84201D102250BE0224D2B
:10031000A84201D1032506E0204DA84202D10425C0
:1003200001E027E00525BD402543B560DBF800402E
:100330005D464E689443F60300D514432C60DEF806
:10034000004075464E689443B60300D514432C60B4
:100350000C4D08352C684E689443F60200D51443C2
:100360002C60084D0C352C684E689443B60200D5BD
:1003700014432C605B1C0A6832FA03F47FF45AAF12
:10038000BDE8F88F00040140001002400000014069
:100390000004004800080048000C00480010004815
:1003A0000AB181617047816270470000014880682E
:1003B000704700001800002090F84120202A24D126
:1003C00090F84020012A20D0012280F840202422E9
:1003D00080F841200268136823F00103136002686B
:1003E000136823F480531360026813680B4313608F
:1003F00001680A6842F001020A60202180F8411079
:10040000002180F84010084670470220704790F89D
:100410004120202A22D190F84020012A1ED001221A
:1004200080F84020242280F841200268136823F0DD
:10043000010313600268136823F4706343EA012127
:10044000116001680A6842F001020A60202180F808
:100450004110002180F84010084670470220704784
:1004600070B5040004D094F84100002510B106E0F6
:10047000012070BD84F84050204600F04DF8242043
:1004800084F841002068016821F001010160606882
:10049000216820F0706008612068816821F40041C3
:1004A0008160E0680128A06807D040F4044021681A
:1004B0008860E068022803D006E040F40040F6E7D8
:1004C00021684FF40060486020684168114A114378
:1004D00041602068C16821F40041C160D4E9040191
:1004E0000843A16940EA01202168C860D4E90701F6
:1004F0000843216808602068016841F0010101603B
:100500006564202084F84100256384F8425000206F
:1005100070BD00000080000200B500680E4987B081
:10052000884216D1C0200090122001900120029034
:10053000032003900420049069460848FFF76CFEEE
:100540000748C16941F40011C161C06900F400109D
:10055000059007B000BD00000054004000040048B2
:10056000001002400248816802781144816070479F
:1005700018000020074810B5016841F01001016023
:10058000032000F089F8002000F006F800F024F8BD
:10059000002010BD0020024070B50D4D04464FF400
:1005A0007A712878B1FBF0F00A490968B1FBF0F0E4
:1005B00000F039FE48B9102C07D200222146501E07
:1005C00000F04AF800206C6070BD012070BD000092
:1005D00018000020240000201E4808B5816941F061
:1005E00001018161816901F001010091C16941F05E
:1005F0008051C161C06900F080500090072000F078
:100600004BF8002211466FF00B0000F025F8002295
:1006100011466FF00A0000F01FF8002211466FF03B
:10062000090000F019F800221146501F00F014F8DC
:1006300000221146101F00F00FF800221146901EF4
:1006400000F00AF80022BDE808401146501E00F0F4
:1006500003B8000000100240F0B40E4B1B680C46BB
:10066000C3F30223C3F10705042D00D90425191D86
:10067000072901D2002300E0DB1E012606FA05F15E
:10068000491E214099409E40761E16403143F0BCE1
:1006900000F0A8BE0CED00E0064900F00702086873
:1006A0004FF6FF03184040EA0220034A1043086057
:1006B000704700000CED00E00000FA0570B5040082
:1006C0004FF0000604D094F87103002510B106E045
:1006D000012070BD84F87053204600F043F80320D9
:1006E00084F8710301220CE0C6EBC60004EB800025
:1006F00080F8292000F8286F761CC570C560056158
:1007000045616068B042EFD8002010E0C0EBC00146
:1007100004EB810181F8CD5181F8CC0181F8CF51F2
:10072000C1F8D851C1F8DC51401CC1F8E0516168F2
:100730008142EBD82068A0F840202068A0F8405003
:100740002068A0F844502068A0F8505021684FF469
:100750003F40A1F8400084F8245084F87123002021
:1007600070BD000000B500680F4987B0884218D1FD
:100770004FF4C0500090022001900020029003200E
:1007800003900E20049069464FF09040FFF744FD1F
:100790000648C16941F40001C161C06900F400006C
:1007A000059007B000BD0000005C00400010024052
:1007B0002DE9F84F04460068804DC0036FD5E86905
:1007C0000026C00008D4E86940F08050E861E8697C
:1007D000012600F08050009079480168C90512D4C4
:1007E0000168804641F480710160FFF7DFFD074634
:1007F00005E000BFFFF7DAFDC01B642835D8D8F844
:100800000000C005F6D5286A10F4407053D0A188C6
:1008100001F4407181424ED0286A4FF4803191FA40
:10082000A1F2B2FA82F29700664A4FF0010817442B
:1008300020F44070C7F8008491FAA1F1B1FA81F177
:1008400002EB81010023C1F800342862C00732D0D6
:10085000FFF7ACFD074641F2883A4FF0020907E086
:10086000FFF7A4FDC11B514502D90320BDE8F88F55
:1008700099FAA9F1B1FA81F141F040014846B8EB8B
:10088000511F01D129680CE090FAA0F1B1FA81F171
:1008900041F04001B0EB511F02D1296A01E015E09F
:1008A000696A99FAA9F0B0FA80F000F01F0008FA1E
:1008B00000F21142D4D0286A616820F440700843E5
:1008C00028621EB1E86920F08050E8612078C007F6
:1008D00005D0286BA16820F0030008432863207826
:1008E000800705D5286BE16820F440300843286371
:1008F0002078400705D5286B216920F44020084363
:1009000028632078800605D5286BE16920F0100067
:10091000084328632068800305D56868A16B20F42C
:100920008000084368602078400605D5286B216A5E
:1009300020F02000084328632078000705D5286BA5
:10094000616920F44010084328632078C00605D56B
:10095000286BA16920F440000843286320888005A3
:1009600005D56868E16A20F40000084368602078D3
:10097000000605D5E86A616A20F4F8700843E86269
:100980002088C00505D5E86AA16A20F4785008439C
:10099000E8622088C00405D5286B216B20F48070A4
:1009A000084328632088800405D5286B616B20F4F8
:1009B000007008432863002058E700000010024040
:1009C00000700040000042422DE9F0470F4605004C
:1009D00069D04A4E306800F00700B84209D230684A
:1009E00020F0070038433060306800F00700B8425C
:1009F00059D12878424C800705D56068A96820F055
:100A0000F000084360602878C0073DD06968012085
:100A100001290DD0022923D05FF0020393FAA3F23B
:100A2000B2FA82F242F02002520904D0226803E0B6
:100A30004FF40033F2E7626A93FAA3F3B3FA83F355
:100A400003F01F03984002422DD0606820F003009D
:100A500008436060FFF7AAFC804641F288390CE049
:100A60004FF00073DAE700BFFFF7A0FCA0EB08012E
:100A7000494502D90320BDE8F0876068696800F045
:100A80000C00B0EB810FEFD1306800F00700B842E6
:100A90000BD9306820F0070038433060306800F030
:100AA0000700B84201D00120E5E72878400705D5C6
:100AB0006068E96820F4E060084360602878000717
:100AC00006D56068296920F4605040EAC100606082
:100AD00000F022F86168F02292FAA2F201F0F0012F
:100AE000B2FA82F2D140074A515CC8400649086018
:100AF0000020FFF751FD0020BDE70000002002406C
:100B000000100240E019000824000020014800689D
:100B10007047000024000020144B10B55A68144898
:100B200002F00C0104291DD008291BD14FF47014C8
:100B300094FAA4F402F47011B4FA84F4E1400D4C78
:100B4000DB6A615C0F2494FAA4F403F00F03B4FA97
:100B500084F4E340074C1034D203E35C03D5B0FBCC
:100B6000F3F0484310BD0448484310BD0010024054
:100B700000127A00C019000800093D002DE9F84F65
:100B8000040071D02078FB4DC0074FF0010625D03E
:100B900068687704C0F38100012807D06868C0F353
:100BA000810002281BD16868C00318D597FAA7F006
:100BB000B0FA80F040F02000400901D0286800E041
:100BC000686A97FAA7F1B1FA81F101F01F0106FAFC
:100BD00001F1084265D060680028D2D061E0606809
:100BE000B0F5803F0BD010B1B0F5A02F17D028681A
:100BF00020F480302860286820F4802002E02868F3
:100C000040F480302860E86AA16820F00F000843B3
:100C1000E862606820B3FFF7C9FB80460AE02868F5
:100C200040F480202860EAE7FFF7C0FBA0EB080053
:100C3000642872D897FAA7F0B0FA80F040F020004C
:100C4000400901D0286800E0686A97FAA7F1B1FA74
:100C500081F101F01F0106FA01F10842E4D020E021
:100C6000FFF7A4FB804607E0C7E000BFFFF79EFB4D
:100C7000A0EB08006428DCD897FAA7F0B0FA80F05F
:100C800040F02000400901D0286800E0686A97FA27
:100C9000A7F1B1FA81F101F01F0106FA01F1084252
:100CA000E4D12078DFF8D08280074FF0000A4FF0BF
:100CB000020759D568684FF0F80B10F00C0F07D0F9
:100CC0006868C0F3810002281BD16868C00318D48B
:100CD00097FAA7F0B0FA80F040F02000400901D068
:100CE000286800E0686A97FAA7F1B1FA81F101F08B
:100CF0001F0106FA01F108422BD0206901287CD19E
:100D000027E0206988B396FAA6F0B0FA80F048F898
:100D10002060FFF74BFB814606E055E1FFF746FBFD
:100D2000A0EB0900022884D897FAA7F0B0FA80F067
:100D300040F02000400901D0286800E0686A97FA76
:100D4000A7F1B1FA81F101F01F0106FA01F10842A1
:100D5000E4D028689BFAABF26169B2FA82F220F023
:100D6000F80091400843286025E0FFE796FAA6F1D5
:100D7000B1FA81F148F821A0FFF718FB814605E0A0
:100D8000FFF714FBA0EB09000228CCD897FAA7F0D4
:100D9000B0FA80F040F02000400901D0286800E05F
:100DA000686A97FAA7F1B1FA81F101F01F0106FA1A
:100DB00001F10842E4D1207800076AD5A069A0B308
:100DC00096FAA6F0B0FA80F008EB8000C0F88064D4
:100DD000FFF7ECFA814605E0FFF7E8FAA0EB09001F
:100DE0000228A0D897FAA7F0B0FA80F040F060008F
:100DF000B6EB501F02D128680CE077E197FAA7F014
:100E0000B0FA80F040F06000B7EB501F01D1286AC3
:100E100000E0686A97FAA7F1B1FA81F101F01F01C9
:100E200006FA01F21042D7D033E0FFE796FAA6F0B7
:100E3000B0FA80F008EB8000C0F880A4FFF7B6FAA3
:100E4000814605E0FFF7B2FAA0EB090002289CD822
:100E500097FAA7F0B0FA80F040F06000B6EB501FB0
:100E600001D128680BE097FAA7F0B0FA80F040F0C3
:100E70006000B7EB501F01D1286A00E0686A97FA5A
:100E8000A7F1B1FA81F101F01F0106FA01F2104257
:100E9000D8D12078400774D5E8694FF00009C00028
:100EA00009D4E86940F08050E861E8694FF0010931
:100EB00000F08050009031480168C90512D40168E3
:100EC00041F480710160FFF771FA834606E000BFCC
:100ED000FFF76CFAA0EB0B00642875D82748006870
:100EE000C005F5D5E06801280AD008B1052811D061
:100EF000286A20F001002862286A20F0040002E03D
:100F0000286A40F001002862E068C8B3FFF74EFA93
:100F100083460DE0286A40F004002862F0E700BF35
:100F2000FFF744FAA0EB0B0141F2883081424BD825
:100F300097FAA7F0B0FA80F040F04000B6EB501FEF
:100F400001D128680BE097FAA7F0B0FA80F040F0E2
:100F50004000B7EB501F01D1286A00E0686A97FA99
:100F6000A7F1B1FA81F101F01F0106FA01F2104276
:100F7000D6D035E000100240000042420070004030
:100F800000E034E0FFF712FA834607E0FFF70EFABD
:100F9000A0EB0B0141F28830814215D897FAA7F0F7
:100FA000B0FA80F040F04000B6EB501F01D1286845
:100FB0000CE097FAA7F0B0FA80F040F04000B7EBF1
:100FC000501F02D1286A01E083E0686A97FAA7F10E
:100FD000B1FA81F101F01F0106FA01F21042D5D1F8
:100FE000B9F1000F03D0E86920F08050E861E069B2
:100FF00080B36968C1F38101022977D04FF0807115
:101000004F00022809D091FAA1F0B0FA80F048F818
:1010100020A0FFF7CBF904465EE050468A4691FADD
:10102000A1F1B1FA81F1C14648F82100FFF7BEF9FC
:10103000804605E0FFF7BAF9A0EB0800022848D87F
:1010400097FAA7F0B0FA80F040F02000400902D0F3
:10105000286801E056E0686A97FAA7F1B1FA81F1D1
:1010600001F01F0106FA01F10842E3D1D4E90810AA
:101070000843696821F47411084368609AFAAAF079
:10108000B0FA80F049F82060FFF790F9044604E0D8
:10109000FFF78CF9001B02281BD897FAA7F0B0FACB
:1010A00080F040F02000400901D0286800E0686A24
:1010B00097FAA7F1B1FA81F101F01F0106FA01F1E7
:1010C0000842E5D01EE000BFFFF770F9001B0228C0
:1010D00002D90320BDE8F88F97FAA7F0B0FA80F0A4
:1010E00040F02000400902D0286801E00CE0686A66
:1010F00097FAA7F1B1FA81F101F01F0106FA01F1A7
:101100000842E1D10020E5E70120E3E72DE9F041C5
:10111000040005D00025A56294F85D0018B107E031
:101120000120BDE8F08184F85C50204600F04AF8C8
:10113000022384F85D302068016821F040010160DD
:10114000E0684FF4E066B04201D9002101E04FF4BD
:101150008051B0F5706F02D0B04200D0A562276B0D
:10116000012227B9B04201D9236300E02263D4E908
:1011700001031843D4E9043633431843238B03F4A3
:1011800000731843E3691843236A1843A36A18439A
:1011900023681860636B606AA66918430427E368D4
:1011A00007EA16463343184308432168486020681D
:1011B000C16921F40061C161256684F85D200020C9
:1011C000AFE7000000B500680E4987B0884217D12C
:1011D0000D48816941F4805181618069694600F45C
:1011E00080500590E02000900220019000200290A5
:1011F00003200390052004904FF09040FFF70CF877
:1012000007B000BD00300140001002404FF0E02167
:101210000428086903D020F004000861704740F0FA
:101220000400FAE7704710B5401EB0F1807F01D38B
:10123000012010BD4FF0E02460610F21601700F025
:10124000D1F80020A06107202061002010BD10B55A
:10125000FFF7E8FF10BD0000F0B589B00C460F495C
:10126000DDE9106591F800E00021DDE90EC7059188
:101270000691CDE9003C079108911346BEF1000F9D
:1012800002972246014601D0012000E00020CDE96E
:10129000036500F051FA09B0F0BD00000000002025
:1012A00070B5274886B0416941F400114161416938
:1012B00001F400110591416941F400214161416946
:1012C00001F400210591416941F4800141614169C6
:1012D00001F480010591416941F4003141614169A6
:1012E00001F400310591416941F480214161406977
:1012F000144E00F480204FF6087505900022294610
:101300003046FFF74DF8372000900F480024CDE914
:10131000010469463046FEF77FFF00950125CDE9BF
:101320000154694630460394FEF776FFCDE9005438
:1013300069464FF090400294FEF76EFF06B070BD14
:10134000001002400010004800001210114810B5B3
:101350000F4901601049416000210122C0E90212D9
:10136000016141618161C1610162FFF779F800B1FA
:10137000FEE700210748FFF71FF800B1FEE7002154
:101380000448FFF744F8002800D0FEE710BD000035
:1013900000540040380000200E090020104810B50D
:1013A0000E4901604FF48271416000214FF4407298
:1013B000C0E902124FF400720161C0E9051208226F
:1013C000C0E9072107234162C0E90A13C0E90C12F2
:1013D000FFF79CFE002800D0FEE710BD0030014062
:1013E000840000200907090E002806DA00F00F002B
:1013F00000F1E02080F8141D704700F1E02080F833
:101400000014704710B5FFF7ADF8BDE81040FFF7C6
:101410001EBF000030B59FB0032000904FF4A02005
:101420000024CDE90104012004901020059002253C
:101430000003CDE90750000109906846FFF79EFBC5
:1014400000B1FEE70F20CDE919054FF48060CDE92A
:101450001B40012119A81D94FFF7B6FA00B1FEE761
:101460000D480A904004189011940AA8FFF7A0F9BB
:1014700000B1FEE7FFF74AFB4FF47A71B0FBF1F0E1
:10148000FFF7D1FE0420FFF7C1FE00221146501ED7
:10149000FFF7E2F81FB030BD2000020014480168D9
:1014A00041F4700101601348016841F001010160DD
:1014B0004168114A114041600168104A11400160C1
:1014C000016821F480210160416821F4FE0141603E
:1014D000C16A21F00F01C162016B094A1140016329
:1014E000002181600249C003803908607047000014
:1014F00088ED00E0001002400CC07FF8FFFFF6FE10
:10150000CCFC00FF02E008C8121F08C1002AFAD173
:1015100070477047002001E001C1121F002AFBD173
:101520007047000030B54B4C85B00D46012903D9FA
:10153000A17841F00801A17000F1400302466571F5
:101540004021002000F0FEF9607828B1012D03D180
:10155000A07840F00400A07000F098F803200390F9
:101560000120019021783C480029E28801886389A4
:1015700041EA0201228942EA030241EA0201428869
:1015800041EA0201828841EA020101D0C08808E0F4
:10159000C288114302891143428911438289C0895B
:1015A0001143014300916946E068FEF735FE3220A1
:1015B000FEF720FE0022E188E068FEF7F1FE00223F
:1015C0006189E068FEF7ECFE2189FF2903D0002243
:1015D000E068FEF7E5FEA078C10615D4032000F010
:1015E000BBF90520FEF706FE032000F0B5F9052043
:1015F000FEF700FE032000F0AFF90120FEF7FAFD30
:10160000022000F0A9F913E040F0200000F02FF8CC
:101610000520FEF7EFFDA07840F0200000F027F84D
:101620000120FEF7E7FDA07840F0200000F01FF851
:10163000A07840F0200000F01AF80420E07000F0DC
:1016400019F800F00BF802202071062000F00FF8C6
:1016500005B030BD000000202800002010B501209A
:1016600000F005F8BDE810400220FEF7C3BD0021E0
:1016700000F032B90449C87840F00400C87040F066
:101680000800FFF7F4BF000000000020234808B561
:10169000C1682348B1F1904F0BD0224A914210D13A
:1016A000416941F480214161406900F4802000904B
:1016B00008BD416941F400314161406900F40030E6
:1016C000F5E7194A914207D1416941F4002141618E
:1016D000406900F40020EAE7144A914207D14169C9
:1016E00041F480114161406900F48010DFE7104A45
:1016F000914207D1416941F400114161406900F410
:101700000010D4E70B4A9142D2D1416941F48001E3
:101710004161406900F48000C9E70000000000203A
:10172000001002400004004800080048000C004877
:1017300000100048001400482DE9F05F0AAC94E85E
:10174000E05F0F4CE28023816581E1600D490E80EE
:101750004F80A1F80480A1F80690A1F808A0A1F894
:101760000AB0A1F80CC0A1F80EE008B1002000E01A
:101770001020A070BDE8F05F02211020FFF7D2BE5C
:1017800000000020280000202DE9F0414FF4807572
:101790000024DFF82C804FF6FF770A4E0AE0012282
:1017A00029464046FEF7FCFD07EA4505C820FEF73E
:1017B00021FD641C30788442F1DBBDE8F08100003B
:1017C00000100048140000201FB50F4808210170C8
:1017D000012141708B034A03090348108DE80F0073
:1017E00043108210C1100948FFF736FD08A000F031
:1017F00041F80121002000F091F809A000F03AF82A
:10180000BDE81F40FFF7C0BF14000020000C0048D7
:101810002020202057726974656E204279000000F4
:10182000202020416C692E47616E646F6D69000055
:10183000FEF7A0FEFFF7EEFDFFF732FDFFF786FD96
:10184000FFF7ACFD0A480949022201600821C0E9FE
:1018500001120021C0E9031281610162FEF72EFF2F
:1018600000B1FEE7FFF7B0FFFEE70000005C0040BC
:10187000E800002070B500280FD00446FEF7A0FC59
:101880000546002606E000BF14F8010B012100F018
:1018900023F8761C6D1EF7D2304670BD10B50D4C86
:1018A00000226189E068FEF77BFD0120FEF7A2FCC3
:1018B00001226189E068FEF773FD0120FEF79AFCC2
:1018C00000226189E068FEF76BFDBDE81040012051
:1018D000FEF790BC0000002070B50F4C05460A468C
:1018E000E188E068FEF75CFD2189FF2903D0002232
:1018F000E068FEF755FDA078C00604D52846BDE88F
:10190000704000F043B8280900F026F82846BDE8EA
:10191000704000F021B8000000000020042900D32E
:101920000321074A5279914201D3521ED1B2044A8F
:101930001032515C0844C0B240F08000FFF797BEFF
:101940000000002010B5034C20706170A270E3709D
:1019500010BD0000100000202DE9F041094E0A4F93
:101960000546002425FA04F000F0010236F81410B0
:10197000F868FEF715FD641C042CF3DBBDE8F041AC
:10198000FFF78CBF28000020000000202DE9F04167
:10199000094E0A4F0546002425FA04F000F0010222
:1019A00036F81410F868FEF7FBFC641C082CF3DB17
:1019B000BDE8F041FFF772BF2800002000000020C2
:1019C00002030405060708090A0B0C0D0E0F101080
:1019D0000102030405060708090A0B0C0D0E0F107F
:1019E00000000000000000000102030406070809CF
:1019F000101A00080000002028000000041500084C
:101A0000381A000828000020680800001415000893
:101A100001000000000000000000000000000000C5
:101A200000000000000000000100000010000000A5
:081A30000000000000127A0022
:040000050800018965
:00000001FF
